{
    "contractName": "MyOwnable",
    "abi": [
        {
            "inputs": [],
            "stateMutability": "nonpayable",
            "type": "constructor"
        },
        {
            "inputs": [],
            "name": "_owner",
            "outputs": [
                {
                    "internalType": "address payable",
                    "name": "",
                    "type": "address"
                }
            ],
            "stateMutability": "view",
            "type": "function"
        },
        {
            "inputs": [],
            "name": "isOwner",
            "outputs": [
                {
                    "internalType": "bool",
                    "name": "",
                    "type": "bool"
                }
            ],
            "stateMutability": "view",
            "type": "function"
        }
    ],
    "bytecode": "608060405234801561001057600080fd5b50600080546001600160a01b0319163317905560c9806100316000396000f3fe6080604052348015600f57600080fd5b506004361060325760003560e01c80638f32d59b146037578063b2bdfa7b146051575b600080fd5b603d6073565b604080519115158252519081900360200190f35b60576084565b604080516001600160a01b039092168252519081900360200190f35b6000546001600160a01b0316331490565b6000546001600160a01b03168156fea2646970667358221220e201a92dd9bac3ae43d8720c2d7e433dea42c8130ceccec9c484c704993c80d364736f6c63430007040033",
    "sourcePath": "/Users/lorenzobelli/web3/truffle1/contracts/MyOwnable.sol",
    "compiler": {
        "name": "solc",
        "version": "0.7.4+commit.3f05b770"
    },
    "functionHashes": {
        "_owner()": "b2bdfa7b",
        "isOwner()": "8f32d59b"
    },
    "gasEstimates": {
        "creation": {
            "codeDepositCost": "40200",
            "executionCost": "20928",
            "totalCost": "61128"
        },
        "external": {
            "_owner()": "1037",
            "isOwner()": "1005"
        }
    }
}